:100000000C9434000C943E000C943E000C943E0082
:100010000C943E000C943E000C943E000C943E0068
:100020000C943E000C943E000C943E000C943E0058
:100030000C943E000C943E000C943E000C943E0048
:100040000C943E000C943E000C943E000C943E0038
:100050000C943E000C943E000C943E000C943E0028
:100060000C943E000C943E0011241FBECFEFD8E04C
:10007000DEBFCDBF0E9440000C94A8000C9400008D
:1000800080E58AB988EA8BB990E120E44B9902C0F7
:100090004D9B08C04B9902C04F9B04C04D990EC0A8
:1000A0004F990CC05C985E983FEF40E782E031507A
:1000B00040408040E1F700C00000E8CF4B9916C0F7
:1000C0003FEF40E782E0315040408040E1F700C020
:1000D00000003FEF40E782E0315040408040E1F7D0
:1000E00000C000008BB189278BB9D0CF4D9915C0C6
:1000F0003FEF40E782E0315040408040E1F700C0F0
:1001000000003FEF40E782E0315040408040E1F79F
:1001100000C000008BB18227E7CF4F9916C03FEF98
:1001200040E782E0315040408040E1F700C00000ED
:100130003FEF40E782E0315040408040E1F700C0AF
:1001400000008BB189278BB9E5CF5C985E989ECF74
:04015000F894FFCF51
:00000001FF
